{"abi":[{"type":"constructor","inputs":[],"stateMutability":"payable"},{"type":"function","name":"DEFAULT_GAS_LIMIT","inputs":[],"outputs":[{"name":"","type":"uint32","internalType":"uint32"}],"stateMutability":"view"},{"type":"function","name":"SYNC_GAS_LIMIT","inputs":[],"outputs":[{"name":"","type":"uint32","internalType":"uint32"}],"stateMutability":"view"},{"type":"function","name":"UPGRADE_INTERFACE_VERSION","inputs":[],"outputs":[{"name":"","type":"string","internalType":"string"}],"stateMutability":"view"},{"type":"function","name":"decodeResults","inputs":[{"name":"_output","type":"bytes","internalType":"bytes"}],"outputs":[{"name":"","type":"tuple[]","internalType":"struct ProofVerificationResult[]","components":[{"name":"id","type":"bytes32","internalType":"bytes32"},{"name":"result","type":"bool","internalType":"bool"}]}],"stateMutability":"pure"},{"type":"function","name":"gateway","inputs":[],"outputs":[{"name":"","type":"address","internalType":"address"}],"stateMutability":"view"},{"type":"function","name":"handleSync","inputs":[{"name":"_output","type":"bytes","internalType":"bytes"},{"name":"","type":"bytes","internalType":"bytes"}],"outputs":[],"stateMutability":"nonpayable"},{"type":"function","name":"handleVerify","inputs":[{"name":"_output","type":"bytes","internalType":"bytes"},{"name":"","type":"bytes","internalType":"bytes"}],"outputs":[],"stateMutability":"nonpayable"},{"type":"function","name":"initialize","inputs":[{"name":"initialOwner","type":"address","internalType":"address"}],"outputs":[],"stateMutability":"nonpayable"},{"type":"function","name":"latestHeader","inputs":[],"outputs":[{"name":"","type":"bytes32","internalType":"bytes32"}],"stateMutability":"view"},{"type":"function","name":"owner","inputs":[],"outputs":[{"name":"","type":"address","internalType":"address"}],"stateMutability":"view"},{"type":"function","name":"proxiableUUID","inputs":[],"outputs":[{"name":"","type":"bytes32","internalType":"bytes32"}],"stateMutability":"view"},{"type":"function","name":"renounceOwnership","inputs":[],"outputs":[],"stateMutability":"nonpayable"},{"type":"function","name":"requestSync","inputs":[],"outputs":[],"stateMutability":"payable"},{"type":"function","name":"requestVerify","inputs":[{"name":"ids","type":"tuple[]","internalType":"struct TransactionOrReceiptId[]","components":[{"name":"isTransaction","type":"bool","internalType":"bool"},{"name":"id","type":"bytes32","internalType":"bytes32"},{"name":"account","type":"bytes","internalType":"bytes"}]}],"outputs":[],"stateMutability":"payable"},{"type":"function","name":"setCheckpointHeader","inputs":[{"name":"_header","type":"bytes32","internalType":"bytes32"}],"outputs":[],"stateMutability":"nonpayable"},{"type":"function","name":"sync","inputs":[{"name":"trustedHeader","type":"bytes32","internalType":"bytes32"}],"outputs":[],"stateMutability":"nonpayable"},{"type":"function","name":"syncFunctionId","inputs":[],"outputs":[{"name":"","type":"bytes32","internalType":"bytes32"}],"stateMutability":"view"},{"type":"function","name":"transferOwnership","inputs":[{"name":"newOwner","type":"address","internalType":"address"}],"outputs":[],"stateMutability":"nonpayable"},{"type":"function","name":"updateGateway","inputs":[{"name":"_gateway","type":"address","internalType":"address"}],"outputs":[],"stateMutability":"nonpayable"},{"type":"function","name":"updateSyncId","inputs":[{"name":"_functionId","type":"bytes32","internalType":"bytes32"}],"outputs":[],"stateMutability":"nonpayable"},{"type":"function","name":"updateVerifyId","inputs":[{"name":"_functionId","type":"bytes32","internalType":"bytes32"}],"outputs":[],"stateMutability":"nonpayable"},{"type":"function","name":"upgradeToAndCall","inputs":[{"name":"newImplementation","type":"address","internalType":"address"},{"name":"data","type":"bytes","internalType":"bytes"}],"outputs":[],"stateMutability":"payable"},{"type":"function","name":"verify","inputs":[{"name":"trustedHeader","type":"bytes32","internalType":"bytes32"},{"name":"_ids","type":"bytes","internalType":"bytes"}],"outputs":[],"stateMutability":"nonpayable"},{"type":"function","name":"verifyFunctionId","inputs":[],"outputs":[{"name":"","type":"bytes32","internalType":"bytes32"}],"stateMutability":"view"},{"type":"event","name":"HeadUpdate","inputs":[{"name":"headerHash","type":"bytes32","indexed":false,"internalType":"bytes32"}],"anonymous":false},{"type":"event","name":"Initialized","inputs":[{"name":"version","type":"uint64","indexed":false,"internalType":"uint64"}],"anonymous":false},{"type":"event","name":"OwnershipTransferred","inputs":[{"name":"previousOwner","type":"address","indexed":true,"internalType":"address"},{"name":"newOwner","type":"address","indexed":true,"internalType":"address"}],"anonymous":false},{"type":"event","name":"SyncRequested","inputs":[{"name":"trustedHeader","type":"bytes32","indexed":true,"internalType":"bytes32"}],"anonymous":false},{"type":"event","name":"Upgraded","inputs":[{"name":"implementation","type":"address","indexed":true,"internalType":"address"}],"anonymous":false},{"type":"event","name":"VerifyRequested","inputs":[{"name":"trustedHeader","type":"bytes32","indexed":true,"internalType":"bytes32"},{"name":"ids","type":"tuple[]","indexed":true,"internalType":"struct TransactionOrReceiptId[]","components":[{"name":"isTransaction","type":"bool","internalType":"bool"},{"name":"id","type":"bytes32","internalType":"bytes32"},{"name":"account","type":"bytes","internalType":"bytes"}]}],"anonymous":false},{"type":"event","name":"VerifyResult","inputs":[{"name":"results","type":"bytes","indexed":false,"internalType":"bytes"}],"anonymous":false},{"type":"error","name":"AddressEmptyCode","inputs":[{"name":"target","type":"address","internalType":"address"}]},{"type":"error","name":"ERC1967InvalidImplementation","inputs":[{"name":"implementation","type":"address","internalType":"address"}]},{"type":"error","name":"ERC1967NonPayable","inputs":[]},{"type":"error","name":"FailedInnerCall","inputs":[]},{"type":"error","name":"FunctionIdsNotInitialised","inputs":[]},{"type":"error","name":"GatewayNotInitialised","inputs":[]},{"type":"error","name":"HeaderNotInitialised","inputs":[]},{"type":"error","name":"InvalidInitialization","inputs":[]},{"type":"error","name":"NotFromSuccinctGateway","inputs":[{"name":"","type":"address","internalType":"address"}]},{"type":"error","name":"NotInitializing","inputs":[]},{"type":"error","name":"OwnableInvalidOwner","inputs":[{"name":"owner","type":"address","internalType":"address"}]},{"type":"error","name":"OwnableUnauthorizedAccount","inputs":[{"name":"account","type":"address","internalType":"address"}]},{"type":"error","name":"TrustedHeaderNotFound","inputs":[]},{"type":"error","name":"UUPSUnauthorizedCallContext","inputs":[]},{"type":"error","name":"UUPSUnsupportedProxiableUUID","inputs":[{"name":"slot","type":"bytes32","internalType":"bytes32"}]}],"bytecode":{"object":"0x60a060405230608052610010610015565b6100c7565b7ff0c57e16840df040f15088dc2f81fe391c3923bec73e23a9662efc9c229c6a00805468010000000000000000900460ff16156100655760405163f92ee8a960e01b815260040160405180910390fd5b80546001600160401b03908116146100c45780546001600160401b0319166001600160401b0390811782556040519081527fc7f505b2f371ae2175ee4913f4499e1f2633a7b5936321eed1cdaeb6115181d29060200160405180910390a15b50565b608051611fde6100f060003960008181610e8d01528181610eb601526110390152611fde6000f3fe60806040526004361061018b5760003560e01c80638d363ad0116100d6578063c0346b201161007f578063d7c908fc11610059578063d7c908fc14610467578063f2fde38b1461047a578063fd4f593d1461049a57600080fd5b8063c0346b2014610410578063c4d66de814610430578063d6be695a1461045057600080fd5b8063ae4b2551116100b0578063ae4b2551146103ba578063b291c2d7146103da578063bba3fe8e146103fa57600080fd5b80638d363ad0146103075780638da5cb5b14610327578063ad3cb1cc1461036457600080fd5b806352d1902d11610138578063694e6f6911610112578063694e6f69146102d4578063715018a6146102ea5780637a03780a146102ff57600080fd5b806352d1902d1461026e5780635629df5b1461029157806356e484e1146102a757600080fd5b80632bdd271f116101695780632bdd271f1461021b5780632ebfd37f1461023b5780634f1ef2861461025b57600080fd5b8063116191b614610190578063258ae582146101cd57806328db958e146101ef575b600080fd5b34801561019c57600080fd5b506000546101b0906001600160a01b031681565b6040516001600160a01b0390911681526020015b60405180910390f35b3480156101d957600080fd5b506101ed6101e83660046117b4565b6104ba565b005b3480156101fb57600080fd5b5061020662061a8081565b60405163ffffffff90911681526020016101c4565b34801561022757600080fd5b506101ed610236366004611800565b610573565b34801561024757600080fd5b506101ed610256366004611819565b610580565b6101ed61026936600461198f565b610670565b34801561027a57600080fd5b5061028361068f565b6040519081526020016101c4565b34801561029d57600080fd5b5061028360025481565b3480156102b357600080fd5b506102c76102c23660046119dd565b6106be565b6040516101c49190611a1f565b3480156102e057600080fd5b5061028360015481565b3480156102f657600080fd5b506101ed610708565b6101ed61071c565b34801561031357600080fd5b506101ed610322366004611819565b610832565b34801561033357600080fd5b507f9016d09d72d40fdae2fd8ceac6b6234c7706214fd39c1cd1e609a0528c199300546001600160a01b03166101b0565b34801561037057600080fd5b506103ad6040518060400160405280600581526020017f352e302e3000000000000000000000000000000000000000000000000000000081525081565b6040516101c49190611ac0565b3480156103c657600080fd5b506101ed6103d5366004611800565b61091d565b3480156103e657600080fd5b506101ed6103f5366004611800565b6109dd565b34801561040657600080fd5b5061028360035481565b34801561041c57600080fd5b506101ed61042b366004611ad3565b6109ea565b34801561043c57600080fd5b506101ed61044b366004611ad3565b610a21565b34801561045c57600080fd5b50610206620f424081565b6101ed610475366004611aee565b610b66565b34801561048657600080fd5b506101ed610495366004611ad3565b610caf565b3480156104a657600080fd5b506101ed6104b5366004611800565b610d06565b6104c2610d13565b600080546002546040516001600160a01b039092169163176e62fd91906104f190889088908890602001611b63565b6040516020818303038152906040526040518363ffffffff1660e01b815260040161051d929190611b7d565b600060405180830381865afa15801561053a573d6000803e3d6000fd5b505050506040513d6000823e601f3d908101601f191682016040526105629190810190611b9e565b905061056d81610dd4565b50505050565b61057b610e0e565b600255565b6000546001600160a01b03163314158061060c575060008054906101000a90046001600160a01b03166001600160a01b03166305d7c1cf6040518163ffffffff1660e01b8152600401602060405180830381865afa1580156105e6573d6000803e3d6000fd5b505050506040513d601f19601f8201168201806040525081019061060a9190611c1a565b155b156106315760405163e74f74d560e01b81523360048201526024015b60405180910390fd5b61056d84848080601f016020809104026020016040519081016040528093929190818152602001838380828437600092019190915250610dd492505050565b610678610e82565b61068182610f39565b61068b8282610f41565b5050565b600061069961102e565b507f360894a13ba1a3210667c828492db98dca3e2076cc3735a920a3ca505d382bbc90565b60606106ff83838080601f01602080910402602001604051908101604052809392919081815260200183838082843760009201919091525061107792505050565b90505b92915050565b610710610e0e565b61071a600061114b565b565b610724610d13565b6000546001546003546040805160208101929092526060936001600160a01b03169263b3f04fdf9234920160408051601f19818403018152908290527fffffffff0000000000000000000000000000000000000000000000000000000060e086901b1682526107bf929187907f8d363ad0000000000000000000000000000000000000000000000000000000009062061a8090600401611c37565b60206040518083038185885af11580156107dd573d6000803e3d6000fd5b50505050506040513d601f19601f820116820180604052508101906108029190611ca3565b506003546040517fbc7802dd01d060a46b393cebd91b8a39c249a47db8f922fd5f42099dadd4996c90600090a250565b6000546001600160a01b0316331415806108be575060008054906101000a90046001600160a01b03166001600160a01b03166305d7c1cf6040518163ffffffff1660e01b8152600401602060405180830381865afa158015610898573d6000803e3d6000fd5b505050506040513d601f19601f820116820180604052508101906108bc9190611c1a565b155b156108de5760405163e74f74d560e01b8152336004820152602401610628565b61056d84848080601f0160208091040260200160405190810160405280939291908181526020018383808284376000920191909152506111c992505050565b610925610d13565b6000805460015460408051602080820187905282518083039091018152818301928390527f176e62fd000000000000000000000000000000000000000000000000000000009092526001600160a01b039093169263176e62fd9261098d929091604401611b7d565b600060405180830381865afa1580156109aa573d6000803e3d6000fd5b505050506040513d6000823e601f3d908101601f191682016040526109d29190810190611b9e565b905061068b816111c9565b6109e5610e0e565b600155565b6109f2610e0e565b6000805473ffffffffffffffffffffffffffffffffffffffff19166001600160a01b0392909216919091179055565b7ff0c57e16840df040f15088dc2f81fe391c3923bec73e23a9662efc9c229c6a00805468010000000000000000810460ff16159067ffffffffffffffff16600081158015610a6c5750825b905060008267ffffffffffffffff166001148015610a895750303b155b905081158015610a97575080155b15610ace576040517ff92ee8a900000000000000000000000000000000000000000000000000000000815260040160405180910390fd5b845467ffffffffffffffff191660011785558315610b0257845468ff00000000000000001916680100000000000000001785555b610b0b8661121e565b610b1361122f565b8315610b5e57845468ff000000000000000019168555604051600181527fc7f505b2f371ae2175ee4913f4499e1f2633a7b5936321eed1cdaeb6115181d29060200160405180910390a15b505050505050565b610b6e610d13565b600354606090600090610b89610b848587611cbc565b611237565b604051602001610b9a929190611d8d565b60408051601f19818403018152908290526000546002547fb3f04fdf0000000000000000000000000000000000000000000000000000000084529193506001600160a01b03169163b3f04fdf913491610c219190869088907f2ebfd37f0000000000000000000000000000000000000000000000000000000090620f424090600401611c37565b60206040518083038185885af1158015610c3f573d6000803e3d6000fd5b50505050506040513d601f19601f82011682018060405250810190610c649190611ca3565b508383604051610c75929190611db3565b60405190819003812060035490917fa4dd48505d62b0b473f0d1ab4fff5474d7b864f5f8b0ac9bd0e4ff184097b05b90600090a350505050565b610cb7610e0e565b6001600160a01b038116610cfa576040517f1e4fbdf700000000000000000000000000000000000000000000000000000000815260006004820152602401610628565b610d038161114b565b50565b610d0e610e0e565b600355565b6000546001600160a01b0316610d55576040517f516f125900000000000000000000000000000000000000000000000000000000815260040160405180910390fd5b6001541580610d645750600254155b15610d9b576040517fc85781e300000000000000000000000000000000000000000000000000000000815260040160405180910390fd5b60035461071a576040517f40a70d0200000000000000000000000000000000000000000000000000000000815260040160405180910390fd5b7f5311e4917ade30f8717c536ae671c9ef3321b1ec3158a9978c939f1d59ec284281604051610e039190611ac0565b60405180910390a150565b33610e407f9016d09d72d40fdae2fd8ceac6b6234c7706214fd39c1cd1e609a0528c199300546001600160a01b031690565b6001600160a01b03161461071a576040517f118cdaa7000000000000000000000000000000000000000000000000000000008152336004820152602401610628565b306001600160a01b037f0000000000000000000000000000000000000000000000000000000000000000161480610f1b57507f00000000000000000000000000000000000000000000000000000000000000006001600160a01b0316610f0f7f360894a13ba1a3210667c828492db98dca3e2076cc3735a920a3ca505d382bbc546001600160a01b031690565b6001600160a01b031614155b1561071a5760405163703e46dd60e11b815260040160405180910390fd5b610d03610e0e565b816001600160a01b03166352d1902d6040518163ffffffff1660e01b8152600401602060405180830381865afa925050508015610f9b575060408051601f3d908101601f19168201909252610f9891810190611ca3565b60015b610fc357604051634c9c8ce360e01b81526001600160a01b0383166004820152602401610628565b7f360894a13ba1a3210667c828492db98dca3e2076cc3735a920a3ca505d382bbc811461101f576040517faa1d49a400000000000000000000000000000000000000000000000000000000815260048101829052602401610628565b611029838361135d565b505050565b306001600160a01b037f0000000000000000000000000000000000000000000000000000000000000000161461071a5760405163703e46dd60e11b815260040160405180910390fd5b6060600060219050600081845161108e9190611e6b565b905060008167ffffffffffffffff8111156110ab576110ab6118a1565b6040519080825280602002602001820160405280156110f057816020015b60408051808201909152600080825260208201528152602001906001900390816110c95790505b50905060606000805b8481101561113f5761110c8883886113b3565b909350915061111a836114a4565b84828151811061112c5761112c611e8d565b60209081029190910101526001016110f9565b50919695505050505050565b7f9016d09d72d40fdae2fd8ceac6b6234c7706214fd39c1cd1e609a0528c199300805473ffffffffffffffffffffffffffffffffffffffff1981166001600160a01b03848116918217845560405192169182907f8be0079c531659141344cd1fd0a4f28419497f9722a3daafe3b4186f6b6457e090600090a3505050565b6000818060200190518101906111df9190611ca3565b60038190556040518181529091507fcbd408984914065fc31971bedb3cfb58a26f657e00781d55dad5dac5d0ff50c99060200160405180910390a15050565b611226611510565b610d0381611577565b61071a611510565b60608060005b83518110156113565780156112d0578184828151811061125f5761125f611e8d565b60200260200101516000015185838151811061127d5761127d611e8d565b60200260200101516020015186848151811061129b5761129b611e8d565b6020026020010151604001516040516020016112ba9493929190611ea3565b604051602081830303815290604052915061134e565b8381815181106112e2576112e2611e8d565b60200260200101516000015184828151811061130057611300611e8d565b60200260200101516020015185838151811061131e5761131e611e8d565b60200260200101516040015160405160200161133c93929190611ee9565b60405160208183030381529060405291505b60010161123d565b5092915050565b6113668261157f565b6040516001600160a01b038316907fbc7cd75a20ee27fd9adebab32041f755214dbc6bffa90cc0225b39da2e5c2d3b90600090a28051156113ab576110298282611603565b61068b611679565b606060006113c18385611f1b565b9050845181111561142e576040517f08c379a000000000000000000000000000000000000000000000000000000000815260206004820152601360248201527f42797465733a204f7574206f662072616e6765000000000000000000000000006044820152606401610628565b8267ffffffffffffffff811115611447576114476118a1565b6040519080825280601f01601f191660200182016040528015611471576020820181803683370190505b5091508360208601016020830160005b85811015611499578281015182820152602001611481565b505050935093915050565b6040805180820190915260008082526020820152606060006114c8848260206113b3565b815191935091506114e29083016020908101908401611ca3565b83526114f0848260016113b3565b90925090506114fe82611f3c565b60f81c15156020840152509092915050565b7ff0c57e16840df040f15088dc2f81fe391c3923bec73e23a9662efc9c229c6a005468010000000000000000900460ff1661071a576040517fd7e6bcf800000000000000000000000000000000000000000000000000000000815260040160405180910390fd5b610cb7611510565b806001600160a01b03163b6000036115b557604051634c9c8ce360e01b81526001600160a01b0382166004820152602401610628565b7f360894a13ba1a3210667c828492db98dca3e2076cc3735a920a3ca505d382bbc805473ffffffffffffffffffffffffffffffffffffffff19166001600160a01b0392909216919091179055565b6060600080846001600160a01b0316846040516116209190611f8c565b600060405180830381855af49150503d806000811461165b576040519150601f19603f3d011682016040523d82523d6000602084013e611660565b606091505b50915091506116708583836116b1565b95945050505050565b341561071a576040517fb398979f00000000000000000000000000000000000000000000000000000000815260040160405180910390fd5b6060826116c6576116c182611729565b611722565b81511580156116dd57506001600160a01b0384163b155b1561171f576040517f9996b3150000000000000000000000000000000000000000000000000000000081526001600160a01b0385166004820152602401610628565b50805b9392505050565b8051156117395780518082602001fd5b6040517f1425ea4200000000000000000000000000000000000000000000000000000000815260040160405180910390fd5b60008083601f84011261177d57600080fd5b50813567ffffffffffffffff81111561179557600080fd5b6020830191508360208285010111156117ad57600080fd5b9250929050565b6000806000604084860312156117c957600080fd5b83359250602084013567ffffffffffffffff8111156117e757600080fd5b6117f38682870161176b565b9497909650939450505050565b60006020828403121561181257600080fd5b5035919050565b6000806000806040858703121561182f57600080fd5b843567ffffffffffffffff8082111561184757600080fd5b6118538883890161176b565b9096509450602087013591508082111561186c57600080fd5b506118798782880161176b565b95989497509550505050565b80356001600160a01b038116811461189c57600080fd5b919050565b634e487b7160e01b600052604160045260246000fd5b6040516060810167ffffffffffffffff811182821017156118da576118da6118a1565b60405290565b604051601f8201601f1916810167ffffffffffffffff81118282101715611909576119096118a1565b604052919050565b600067ffffffffffffffff82111561192b5761192b6118a1565b50601f01601f191660200190565b600082601f83011261194a57600080fd5b813561195d61195882611911565b6118e0565b81815284602083860101111561197257600080fd5b816020850160208301376000918101602001919091529392505050565b600080604083850312156119a257600080fd5b6119ab83611885565b9150602083013567ffffffffffffffff8111156119c757600080fd5b6119d385828601611939565b9150509250929050565b600080602083850312156119f057600080fd5b823567ffffffffffffffff811115611a0757600080fd5b611a138582860161176b565b90969095509350505050565b602080825282518282018190526000919060409081850190868401855b82811015611a63578151805185528601511515868501529284019290850190600101611a3c565b5091979650505050505050565b60005b83811015611a8b578181015183820152602001611a73565b50506000910152565b60008151808452611aac816020860160208601611a70565b601f01601f19169290920160200192915050565b6020815260006106ff6020830184611a94565b600060208284031215611ae557600080fd5b6106ff82611885565b60008060208385031215611b0157600080fd5b823567ffffffffffffffff80821115611b1957600080fd5b818501915085601f830112611b2d57600080fd5b813581811115611b3c57600080fd5b8660208260051b8501011115611b5157600080fd5b60209290920196919550909350505050565b838152818360208301376000910160200190815292915050565b828152604060208201526000611b966040830184611a94565b949350505050565b600060208284031215611bb057600080fd5b815167ffffffffffffffff811115611bc757600080fd5b8201601f81018413611bd857600080fd5b8051611be661195882611911565b818152856020838501011115611bfb57600080fd5b611670826020830160208601611a70565b8015158114610d0357600080fd5b600060208284031215611c2c57600080fd5b815161172281611c0c565b85815260a060208201526000611c5060a0830187611a94565b8281036040840152611c628187611a94565b9150507fffffffff000000000000000000000000000000000000000000000000000000008416606083015263ffffffff831660808301529695505050505050565b600060208284031215611cb557600080fd5b5051919050565b600067ffffffffffffffff80841115611cd757611cd76118a1565b8360051b6020611ce88183016118e0565b868152918501918181019036841115611d0057600080fd5b865b84811015611d8157803586811115611d1a5760008081fd5b88016060368290031215611d2e5760008081fd5b611d366118b7565b8135611d4181611c0c565b8152818601358682015260408083013589811115611d5f5760008081fd5b611d6b36828601611939565b9183019190915250845250918301918301611d02565b50979650505050505050565b82815260008251611da5816020850160208701611a70565b919091016020019392505050565b60008184825b85811015611e60578135605e19883603018112611dd557600080fd5b87018035611de281611c0c565b151584526020818101358186015260408083013536849003601e19018112611e0957600080fd5b90920181810192903567ffffffffffffffff811115611e2757600080fd5b803603841315611e3657600080fd5b8084838901376000878201830152601f01601f191690950190940193929092019150600101611db9565b509095945050505050565b600082611e8857634e487b7160e01b600052601260045260246000fd5b500490565b634e487b7160e01b600052603260045260246000fd5b60008551611eb5818460208a01611a70565b808301905085151560f81b81528460018201528351611edb816021840160208801611a70565b016021019695505050505050565b83151560f81b815282600182015260008251611f0c816021850160208701611a70565b91909101602101949350505050565b8082018082111561070257634e487b7160e01b600052601160045260246000fd5b6000815160208301517fff0000000000000000000000000000000000000000000000000000000000000080821693506001831015611f845780818460010360031b1b83161693505b505050919050565b60008251611f9e818460208701611a70565b919091019291505056fea2646970667358221220a4763880f4f565a8ed3ff206e679c83c223c1a392b125999a54c0edf7469ab5564736f6c63430008180033","linkReferences":{}},"methodIdentifiers":{"DEFAULT_GAS_LIMIT()":"d6be695a","SYNC_GAS_LIMIT()":"28db958e","UPGRADE_INTERFACE_VERSION()":"ad3cb1cc","decodeResults(bytes)":"56e484e1","gateway()":"116191b6","handleSync(bytes,bytes)":"8d363ad0","handleVerify(bytes,bytes)":"2ebfd37f","initialize(address)":"c4d66de8","latestHeader()":"bba3fe8e","owner()":"8da5cb5b","proxiableUUID()":"52d1902d","renounceOwnership()":"715018a6","requestSync()":"7a03780a","requestVerify((bool,bytes32,bytes)[])":"d7c908fc","setCheckpointHeader(bytes32)":"fd4f593d","sync(bytes32)":"ae4b2551","syncFunctionId()":"694e6f69","transferOwnership(address)":"f2fde38b","updateGateway(address)":"c0346b20","updateSyncId(bytes32)":"b291c2d7","updateVerifyId(bytes32)":"2bdd271f","upgradeToAndCall(address,bytes)":"4f1ef286","verify(bytes32,bytes)":"258ae582","verifyFunctionId()":"5629df5b"},"storageLayout":{"storage":[{"astId":54358,"contract":"src/NearX.sol:NearX","label":"gateway","offset":0,"slot":"0","type":"t_address"},{"astId":54361,"contract":"src/NearX.sol:NearX","label":"syncFunctionId","offset":0,"slot":"1","type":"t_bytes32"},{"astId":54364,"contract":"src/NearX.sol:NearX","label":"verifyFunctionId","offset":0,"slot":"2","type":"t_bytes32"},{"astId":54367,"contract":"src/NearX.sol:NearX","label":"latestHeader","offset":0,"slot":"3","type":"t_bytes32"}],"types":{"t_address":{"encoding":"inplace","label":"address","numberOfBytes":"20"},"t_bytes32":{"encoding":"inplace","label":"bytes32","numberOfBytes":"32"}}},"id":58}